{
  "_format": "hh-sol-artifact-1",
  "contractName": "RaqNFT",
  "sourceName": "contracts/RaqNFT.sol",
  "abi": [
    {
      "inputs": [],
      "stateMutability": "nonpayable",
      "type": "constructor"
    },
    {
      "anonymous": false,
      "inputs": [
        {
          "indexed": true,
          "internalType": "address",
          "name": "owner",
          "type": "address"
        },
        {
          "indexed": true,
          "internalType": "address",
          "name": "approved",
          "type": "address"
        },
        {
          "indexed": true,
          "internalType": "uint256",
          "name": "tokenId",
          "type": "uint256"
        }
      ],
      "name": "Approval",
      "type": "event"
    },
    {
      "anonymous": false,
      "inputs": [
        {
          "indexed": true,
          "internalType": "address",
          "name": "owner",
          "type": "address"
        },
        {
          "indexed": true,
          "internalType": "address",
          "name": "operator",
          "type": "address"
        },
        {
          "indexed": false,
          "internalType": "bool",
          "name": "approved",
          "type": "bool"
        }
      ],
      "name": "ApprovalForAll",
      "type": "event"
    },
    {
      "anonymous": false,
      "inputs": [
        {
          "indexed": true,
          "internalType": "address",
          "name": "previousOwner",
          "type": "address"
        },
        {
          "indexed": true,
          "internalType": "address",
          "name": "newOwner",
          "type": "address"
        }
      ],
      "name": "OwnershipTransferred",
      "type": "event"
    },
    {
      "anonymous": false,
      "inputs": [
        {
          "indexed": true,
          "internalType": "address",
          "name": "from",
          "type": "address"
        },
        {
          "indexed": true,
          "internalType": "address",
          "name": "to",
          "type": "address"
        },
        {
          "indexed": true,
          "internalType": "uint256",
          "name": "tokenId",
          "type": "uint256"
        }
      ],
      "name": "Transfer",
      "type": "event"
    },
    {
      "inputs": [
        {
          "internalType": "address",
          "name": "to",
          "type": "address"
        },
        {
          "internalType": "uint256",
          "name": "tokenId",
          "type": "uint256"
        }
      ],
      "name": "approve",
      "outputs": [],
      "stateMutability": "nonpayable",
      "type": "function"
    },
    {
      "inputs": [
        {
          "internalType": "address",
          "name": "owner",
          "type": "address"
        }
      ],
      "name": "balanceOf",
      "outputs": [
        {
          "internalType": "uint256",
          "name": "",
          "type": "uint256"
        }
      ],
      "stateMutability": "view",
      "type": "function"
    },
    {
      "inputs": [],
      "name": "cost",
      "outputs": [
        {
          "internalType": "uint256",
          "name": "",
          "type": "uint256"
        }
      ],
      "stateMutability": "view",
      "type": "function"
    },
    {
      "inputs": [
        {
          "internalType": "uint256",
          "name": "tokenId",
          "type": "uint256"
        }
      ],
      "name": "getApproved",
      "outputs": [
        {
          "internalType": "address",
          "name": "",
          "type": "address"
        }
      ],
      "stateMutability": "view",
      "type": "function"
    },
    {
      "inputs": [
        {
          "internalType": "address",
          "name": "owner",
          "type": "address"
        },
        {
          "internalType": "address",
          "name": "operator",
          "type": "address"
        }
      ],
      "name": "isApprovedForAll",
      "outputs": [
        {
          "internalType": "bool",
          "name": "",
          "type": "bool"
        }
      ],
      "stateMutability": "view",
      "type": "function"
    },
    {
      "inputs": [],
      "name": "jsonBase",
      "outputs": [
        {
          "internalType": "string",
          "name": "",
          "type": "string"
        }
      ],
      "stateMutability": "view",
      "type": "function"
    },
    {
      "inputs": [
        {
          "internalType": "string",
          "name": "_base64",
          "type": "string"
        }
      ],
      "name": "makeAnEpicNFT",
      "outputs": [],
      "stateMutability": "payable",
      "type": "function"
    },
    {
      "inputs": [],
      "name": "maxSupply",
      "outputs": [
        {
          "internalType": "uint256",
          "name": "",
          "type": "uint256"
        }
      ],
      "stateMutability": "view",
      "type": "function"
    },
    {
      "inputs": [],
      "name": "name",
      "outputs": [
        {
          "internalType": "string",
          "name": "",
          "type": "string"
        }
      ],
      "stateMutability": "view",
      "type": "function"
    },
    {
      "inputs": [],
      "name": "owner",
      "outputs": [
        {
          "internalType": "address",
          "name": "",
          "type": "address"
        }
      ],
      "stateMutability": "view",
      "type": "function"
    },
    {
      "inputs": [
        {
          "internalType": "uint256",
          "name": "tokenId",
          "type": "uint256"
        }
      ],
      "name": "ownerOf",
      "outputs": [
        {
          "internalType": "address",
          "name": "",
          "type": "address"
        }
      ],
      "stateMutability": "view",
      "type": "function"
    },
    {
      "inputs": [
        {
          "internalType": "bool",
          "name": "_state",
          "type": "bool"
        }
      ],
      "name": "pause",
      "outputs": [],
      "stateMutability": "nonpayable",
      "type": "function"
    },
    {
      "inputs": [],
      "name": "paused",
      "outputs": [
        {
          "internalType": "bool",
          "name": "",
          "type": "bool"
        }
      ],
      "stateMutability": "view",
      "type": "function"
    },
    {
      "inputs": [
        {
          "internalType": "address",
          "name": "_user",
          "type": "address"
        }
      ],
      "name": "removeWhitelistUser",
      "outputs": [],
      "stateMutability": "nonpayable",
      "type": "function"
    },
    {
      "inputs": [],
      "name": "renounceOwnership",
      "outputs": [],
      "stateMutability": "nonpayable",
      "type": "function"
    },
    {
      "inputs": [
        {
          "internalType": "address",
          "name": "from",
          "type": "address"
        },
        {
          "internalType": "address",
          "name": "to",
          "type": "address"
        },
        {
          "internalType": "uint256",
          "name": "tokenId",
          "type": "uint256"
        }
      ],
      "name": "safeTransferFrom",
      "outputs": [],
      "stateMutability": "nonpayable",
      "type": "function"
    },
    {
      "inputs": [
        {
          "internalType": "address",
          "name": "from",
          "type": "address"
        },
        {
          "internalType": "address",
          "name": "to",
          "type": "address"
        },
        {
          "internalType": "uint256",
          "name": "tokenId",
          "type": "uint256"
        },
        {
          "internalType": "bytes",
          "name": "_data",
          "type": "bytes"
        }
      ],
      "name": "safeTransferFrom",
      "outputs": [],
      "stateMutability": "nonpayable",
      "type": "function"
    },
    {
      "inputs": [
        {
          "internalType": "address",
          "name": "operator",
          "type": "address"
        },
        {
          "internalType": "bool",
          "name": "approved",
          "type": "bool"
        }
      ],
      "name": "setApprovalForAll",
      "outputs": [],
      "stateMutability": "nonpayable",
      "type": "function"
    },
    {
      "inputs": [
        {
          "internalType": "uint256",
          "name": "_newCost",
          "type": "uint256"
        }
      ],
      "name": "setCost",
      "outputs": [],
      "stateMutability": "nonpayable",
      "type": "function"
    },
    {
      "inputs": [
        {
          "internalType": "bytes4",
          "name": "interfaceId",
          "type": "bytes4"
        }
      ],
      "name": "supportsInterface",
      "outputs": [
        {
          "internalType": "bool",
          "name": "",
          "type": "bool"
        }
      ],
      "stateMutability": "view",
      "type": "function"
    },
    {
      "inputs": [],
      "name": "symbol",
      "outputs": [
        {
          "internalType": "string",
          "name": "",
          "type": "string"
        }
      ],
      "stateMutability": "view",
      "type": "function"
    },
    {
      "inputs": [
        {
          "internalType": "uint256",
          "name": "tokenId",
          "type": "uint256"
        }
      ],
      "name": "tokenURI",
      "outputs": [
        {
          "internalType": "string",
          "name": "",
          "type": "string"
        }
      ],
      "stateMutability": "view",
      "type": "function"
    },
    {
      "inputs": [],
      "name": "totalCount",
      "outputs": [
        {
          "internalType": "uint16",
          "name": "",
          "type": "uint16"
        }
      ],
      "stateMutability": "view",
      "type": "function"
    },
    {
      "inputs": [
        {
          "internalType": "address",
          "name": "from",
          "type": "address"
        },
        {
          "internalType": "address",
          "name": "to",
          "type": "address"
        },
        {
          "internalType": "uint256",
          "name": "tokenId",
          "type": "uint256"
        }
      ],
      "name": "transferFrom",
      "outputs": [],
      "stateMutability": "nonpayable",
      "type": "function"
    },
    {
      "inputs": [
        {
          "internalType": "address",
          "name": "newOwner",
          "type": "address"
        }
      ],
      "name": "transferOwnership",
      "outputs": [],
      "stateMutability": "nonpayable",
      "type": "function"
    },
    {
      "inputs": [
        {
          "internalType": "address",
          "name": "_user",
          "type": "address"
        }
      ],
      "name": "whitelistUser",
      "outputs": [],
      "stateMutability": "nonpayable",
      "type": "function"
    },
    {
      "inputs": [
        {
          "internalType": "address",
          "name": "",
          "type": "address"
        }
      ],
      "name": "whitelisted",
      "outputs": [
        {
          "internalType": "bool",
          "name": "",
          "type": "bool"
        }
      ],
      "stateMutability": "view",
      "type": "function"
    },
    {
      "inputs": [],
      "name": "withdraw",
      "outputs": [],
      "stateMutability": "payable",
      "type": "function"
    }
  ],
  "bytecode": "0x608060405267016345785d8a00006009556103e8600a556000600b60006101000a81548160ff0219169083151502179055506040518060400160405280601d81526020017f646174613a6170706c69636174696f6e2f6a736f6e3b6261736536342c000000815250600c90805190602001906200007e92919062000338565b503480156200008c57600080fd5b506040518060400160405280600681526020017f5261714e465400000000000000000000000000000000000000000000000000008152506040518060400160405280600381526020017f524151000000000000000000000000000000000000000000000000000000000081525081600090805190602001906200011192919062000338565b5080600190805190602001906200012a92919062000338565b5050506200014d620001416200019e60201b60201c565b620001a660201b60201c565b620001986040518060400160405280601681526020017f48656c6c6f205261712120497420697320616c697665000000000000000000008152506200026c60201b620015a91760201c565b62000515565b600033905090565b6000600760009054906101000a900473ffffffffffffffffffffffffffffffffffffffff16905081600760006101000a81548173ffffffffffffffffffffffffffffffffffffffff021916908373ffffffffffffffffffffffffffffffffffffffff1602179055508173ffffffffffffffffffffffffffffffffffffffff168173ffffffffffffffffffffffffffffffffffffffff167f8be0079c531659141344cd1fd0a4f28419497f9722a3daafe3b4186f6b6457e060405160405180910390a35050565b6200030c8160405160240162000283919062000429565b6040516020818303038152906040527f41304fac000000000000000000000000000000000000000000000000000000007bffffffffffffffffffffffffffffffffffffffffffffffffffffffff19166020820180517bffffffffffffffffffffffffffffffffffffffffffffffffffffffff83818316178352505050506200030f60201b60201c565b50565b60008151905060006a636f6e736f6c652e6c6f679050602083016000808483855afa5050505050565b82805462000346906200049f565b90600052602060002090601f0160209004810192826200036a5760008555620003b6565b82601f106200038557805160ff1916838001178555620003b6565b82800160010185558215620003b6579182015b82811115620003b557825182559160200191906001019062000398565b5b509050620003c59190620003c9565b5090565b5b80821115620003e4576000816000905550600101620003ca565b5090565b6000620003f5826200044d565b62000401818562000458565b93506200041381856020860162000469565b6200041e8162000504565b840191505092915050565b60006020820190508181036000830152620004458184620003e8565b905092915050565b600081519050919050565b600082825260208201905092915050565b60005b83811015620004895780820151818401526020810190506200046c565b8381111562000499576000848401525b50505050565b60006002820490506001821680620004b857607f821691505b60208210811415620004cf57620004ce620004d5565b5b50919050565b7f4e487b7100000000000000000000000000000000000000000000000000000000600052602260045260246000fd5b6000601f19601f8301169050919050565b61392780620005256000396000f3fe6080604052600436106101b75760003560e01c80634a4c560d116100ec578063a22cb4651161008a578063d5abeb0111610064578063d5abeb01146105c8578063d936547e146105f3578063e985e9c514610630578063f2fde38b1461066d576101b7565b8063a22cb46514610539578063b88d4fde14610562578063c87b56dd1461058b576101b7565b806370a08231116100c657806370a082311461048f578063715018a6146104cc5780638da5cb5b146104e357806395d89b411461050e576101b7565b80634a4c560d146103fe5780635c975abb146104275780636352211e14610452576101b7565b806330cc7ae0116101595780633ccfd60b116101335780633ccfd60b14610377578063420c48591461038157806342842e0e146103ac57806344a0d68a146103d5576101b7565b806330cc7ae01461030757806334eafb111461033057806339fa8daf1461035b576101b7565b8063081812fc11610195578063081812fc1461024d578063095ea7b31461028a57806313faede6146102b357806323b872dd146102de576101b7565b806301ffc9a7146101bc57806302329a29146101f957806306fdde0314610222575b600080fd5b3480156101c857600080fd5b506101e360048036038101906101de9190612870565b610696565b6040516101f091906131cd565b60405180910390f35b34801561020557600080fd5b50610220600480360381019061021b9190612847565b610778565b005b34801561022e57600080fd5b50610237610811565b60405161024491906131e8565b60405180910390f35b34801561025957600080fd5b50610274600480360381019061026f9190612903565b6108a3565b6040516102819190613166565b60405180910390f35b34801561029657600080fd5b506102b160048036038101906102ac919061280b565b610928565b005b3480156102bf57600080fd5b506102c8610a40565b6040516102d59190613465565b60405180910390f35b3480156102ea57600080fd5b5061030560048036038101906103009190612705565b610a46565b005b34801561031357600080fd5b5061032e600480360381019061032991906126a0565b610aa6565b005b34801561033c57600080fd5b50610345610b7d565b604051610352919061344a565b60405180910390f35b610375600480360381019061037091906128c2565b610b96565b005b61037f610ca5565b005b34801561038d57600080fd5b50610396610d61565b6040516103a391906131e8565b60405180910390f35b3480156103b857600080fd5b506103d360048036038101906103ce9190612705565b610def565b005b3480156103e157600080fd5b506103fc60048036038101906103f79190612903565b610e0f565b005b34801561040a57600080fd5b50610425600480360381019061042091906126a0565b610e95565b005b34801561043357600080fd5b5061043c610f6c565b60405161044991906131cd565b60405180910390f35b34801561045e57600080fd5b5061047960048036038101906104749190612903565b610f7f565b6040516104869190613166565b60405180910390f35b34801561049b57600080fd5b506104b660048036038101906104b191906126a0565b611031565b6040516104c39190613465565b60405180910390f35b3480156104d857600080fd5b506104e16110e9565b005b3480156104ef57600080fd5b506104f8611171565b6040516105059190613166565b60405180910390f35b34801561051a57600080fd5b5061052361119b565b60405161053091906131e8565b60405180910390f35b34801561054557600080fd5b50610560600480360381019061055b91906127cf565b61122d565b005b34801561056e57600080fd5b5061058960048036038101906105849190612754565b611243565b005b34801561059757600080fd5b506105b260048036038101906105ad9190612903565b6112a5565b6040516105bf91906131e8565b60405180910390f35b3480156105d457600080fd5b506105dd6113f7565b6040516105ea9190613465565b60405180910390f35b3480156105ff57600080fd5b5061061a600480360381019061061591906126a0565b6113fd565b60405161062791906131cd565b60405180910390f35b34801561063c57600080fd5b50610657600480360381019061065291906126c9565b61141d565b60405161066491906131cd565b60405180910390f35b34801561067957600080fd5b50610694600480360381019061068f91906126a0565b6114b1565b005b60007f80ac58cd000000000000000000000000000000000000000000000000000000007bffffffffffffffffffffffffffffffffffffffffffffffffffffffff1916827bffffffffffffffffffffffffffffffffffffffffffffffffffffffff1916148061076157507f5b5e139f000000000000000000000000000000000000000000000000000000007bffffffffffffffffffffffffffffffffffffffffffffffffffffffff1916827bffffffffffffffffffffffffffffffffffffffffffffffffffffffff1916145b80610771575061077082611642565b5b9050919050565b6107806116ac565b73ffffffffffffffffffffffffffffffffffffffff1661079e611171565b73ffffffffffffffffffffffffffffffffffffffff16146107f4576040517f08c379a00000000000000000000000000000000000000000000000000000000081526004016107eb906133aa565b60405180910390fd5b80600b60006101000a81548160ff02191690831515021790555050565b6060600080546108209061371c565b80601f016020809104026020016040519081016040528092919081815260200182805461084c9061371c565b80156108995780601f1061086e57610100808354040283529160200191610899565b820191906000526020600020905b81548152906001019060200180831161087c57829003601f168201915b5050505050905090565b60006108ae826116b4565b6108ed576040517f08c379a00000000000000000000000000000000000000000000000000000000081526004016108e49061338a565b60405180910390fd5b6004600083815260200190815260200160002060009054906101000a900473ffffffffffffffffffffffffffffffffffffffff169050919050565b600061093382610f7f565b90508073ffffffffffffffffffffffffffffffffffffffff168373ffffffffffffffffffffffffffffffffffffffff1614156109a4576040517f08c379a000000000000000000000000000000000000000000000000000000000815260040161099b9061340a565b60405180910390fd5b8073ffffffffffffffffffffffffffffffffffffffff166109c36116ac565b73ffffffffffffffffffffffffffffffffffffffff1614806109f257506109f1816109ec6116ac565b61141d565b5b610a31576040517f08c379a0000000000000000000000000000000000000000000000000000000008152600401610a28906132ca565b60405180910390fd5b610a3b8383611720565b505050565b60095481565b610a57610a516116ac565b826117d9565b610a96576040517f08c379a0000000000000000000000000000000000000000000000000000000008152600401610a8d9061342a565b60405180910390fd5b610aa18383836118b7565b505050565b610aae6116ac565b73ffffffffffffffffffffffffffffffffffffffff16610acc611171565b73ffffffffffffffffffffffffffffffffffffffff1614610b22576040517f08c379a0000000000000000000000000000000000000000000000000000000008152600401610b19906133aa565b60405180910390fd5b6000600d60008373ffffffffffffffffffffffffffffffffffffffff1673ffffffffffffffffffffffffffffffffffffffff16815260200190815260200160002060006101000a81548160ff02191690831515021790555050565b60006001600860000154610b9191906135f0565b905090565b600b60009054906101000a900460ff1615610bb057600080fd5b610bb8611171565b73ffffffffffffffffffffffffffffffffffffffff163373ffffffffffffffffffffffffffffffffffffffff1614610c535760011515600d60003373ffffffffffffffffffffffffffffffffffffffff1673ffffffffffffffffffffffffffffffffffffffff16815260200190815260200160002060009054906101000a900460ff16151514610c5257600954341015610c5157600080fd5b5b5b6000610c5f6008611b13565b9050610c6b3382611b21565b610c9781600c84604051602001610c83929190613142565b604051602081830303815290604052611b3f565b610ca16008611bb3565b5050565b610cad6116ac565b73ffffffffffffffffffffffffffffffffffffffff16610ccb611171565b73ffffffffffffffffffffffffffffffffffffffff1614610d21576040517f08c379a0000000000000000000000000000000000000000000000000000000008152600401610d18906133aa565b60405180910390fd5b3373ffffffffffffffffffffffffffffffffffffffff166108fc479081150290604051600060405180830381858888f19350505050610d5f57600080fd5b565b600c8054610d6e9061371c565b80601f0160208091040260200160405190810160405280929190818152602001828054610d9a9061371c565b8015610de75780601f10610dbc57610100808354040283529160200191610de7565b820191906000526020600020905b815481529060010190602001808311610dca57829003601f168201915b505050505081565b610e0a83838360405180602001604052806000815250611243565b505050565b610e176116ac565b73ffffffffffffffffffffffffffffffffffffffff16610e35611171565b73ffffffffffffffffffffffffffffffffffffffff1614610e8b576040517f08c379a0000000000000000000000000000000000000000000000000000000008152600401610e82906133aa565b60405180910390fd5b8060098190555050565b610e9d6116ac565b73ffffffffffffffffffffffffffffffffffffffff16610ebb611171565b73ffffffffffffffffffffffffffffffffffffffff1614610f11576040517f08c379a0000000000000000000000000000000000000000000000000000000008152600401610f08906133aa565b60405180910390fd5b6001600d60008373ffffffffffffffffffffffffffffffffffffffff1673ffffffffffffffffffffffffffffffffffffffff16815260200190815260200160002060006101000a81548160ff02191690831515021790555050565b600b60009054906101000a900460ff1681565b6000806002600084815260200190815260200160002060009054906101000a900473ffffffffffffffffffffffffffffffffffffffff169050600073ffffffffffffffffffffffffffffffffffffffff168173ffffffffffffffffffffffffffffffffffffffff161415611028576040517f08c379a000000000000000000000000000000000000000000000000000000000815260040161101f9061330a565b60405180910390fd5b80915050919050565b60008073ffffffffffffffffffffffffffffffffffffffff168273ffffffffffffffffffffffffffffffffffffffff1614156110a2576040517f08c379a0000000000000000000000000000000000000000000000000000000008152600401611099906132ea565b60405180910390fd5b600360008373ffffffffffffffffffffffffffffffffffffffff1673ffffffffffffffffffffffffffffffffffffffff168152602001908152602001600020549050919050565b6110f16116ac565b73ffffffffffffffffffffffffffffffffffffffff1661110f611171565b73ffffffffffffffffffffffffffffffffffffffff1614611165576040517f08c379a000000000000000000000000000000000000000000000000000000000815260040161115c906133aa565b60405180910390fd5b61116f6000611bc9565b565b6000600760009054906101000a900473ffffffffffffffffffffffffffffffffffffffff16905090565b6060600180546111aa9061371c565b80601f01602080910402602001604051908101604052809291908181526020018280546111d69061371c565b80156112235780601f106111f857610100808354040283529160200191611223565b820191906000526020600020905b81548152906001019060200180831161120657829003601f168201915b5050505050905090565b61123f6112386116ac565b8383611c8f565b5050565b61125461124e6116ac565b836117d9565b611293576040517f08c379a000000000000000000000000000000000000000000000000000000000815260040161128a9061342a565b60405180910390fd5b61129f84848484611dfc565b50505050565b60606112b0826116b4565b6112ef576040517f08c379a00000000000000000000000000000000000000000000000000000000081526004016112e69061336a565b60405180910390fd5b600060066000848152602001908152602001600020805461130f9061371c565b80601f016020809104026020016040519081016040528092919081815260200182805461133b9061371c565b80156113885780601f1061135d57610100808354040283529160200191611388565b820191906000526020600020905b81548152906001019060200180831161136b57829003601f168201915b505050505090506000611399611e58565b90506000815114156113af5781925050506113f2565b6000825111156113e45780826040516020016113cc92919061311e565b604051602081830303815290604052925050506113f2565b6113ed84611e6f565b925050505b919050565b600a5481565b600d6020528060005260406000206000915054906101000a900460ff1681565b6000600560008473ffffffffffffffffffffffffffffffffffffffff1673ffffffffffffffffffffffffffffffffffffffff16815260200190815260200160002060008373ffffffffffffffffffffffffffffffffffffffff1673ffffffffffffffffffffffffffffffffffffffff16815260200190815260200160002060009054906101000a900460ff16905092915050565b6114b96116ac565b73ffffffffffffffffffffffffffffffffffffffff166114d7611171565b73ffffffffffffffffffffffffffffffffffffffff161461152d576040517f08c379a0000000000000000000000000000000000000000000000000000000008152600401611524906133aa565b60405180910390fd5b600073ffffffffffffffffffffffffffffffffffffffff168173ffffffffffffffffffffffffffffffffffffffff16141561159d576040517f08c379a00000000000000000000000000000000000000000000000000000000081526004016115949061322a565b60405180910390fd5b6115a681611bc9565b50565b61163f816040516024016115bd91906131e8565b6040516020818303038152906040527f41304fac000000000000000000000000000000000000000000000000000000007bffffffffffffffffffffffffffffffffffffffffffffffffffffffff19166020820180517bffffffffffffffffffffffffffffffffffffffffffffffffffffffff8381831617835250505050611f16565b50565b60007f01ffc9a7000000000000000000000000000000000000000000000000000000007bffffffffffffffffffffffffffffffffffffffffffffffffffffffff1916827bffffffffffffffffffffffffffffffffffffffffffffffffffffffff1916149050919050565b600033905090565b60008073ffffffffffffffffffffffffffffffffffffffff166002600084815260200190815260200160002060009054906101000a900473ffffffffffffffffffffffffffffffffffffffff1673ffffffffffffffffffffffffffffffffffffffff1614159050919050565b816004600083815260200190815260200160002060006101000a81548173ffffffffffffffffffffffffffffffffffffffff021916908373ffffffffffffffffffffffffffffffffffffffff160217905550808273ffffffffffffffffffffffffffffffffffffffff1661179383610f7f565b73ffffffffffffffffffffffffffffffffffffffff167f8c5be1e5ebec7d5bd14f71427d1e84f3dd0314c0f7b2291e5b200ac8c7c3b92560405160405180910390a45050565b60006117e4826116b4565b611823576040517f08c379a000000000000000000000000000000000000000000000000000000000815260040161181a906132aa565b60405180910390fd5b600061182e83610f7f565b90508073ffffffffffffffffffffffffffffffffffffffff168473ffffffffffffffffffffffffffffffffffffffff16148061189d57508373ffffffffffffffffffffffffffffffffffffffff16611885846108a3565b73ffffffffffffffffffffffffffffffffffffffff16145b806118ae57506118ad818561141d565b5b91505092915050565b8273ffffffffffffffffffffffffffffffffffffffff166118d782610f7f565b73ffffffffffffffffffffffffffffffffffffffff161461192d576040517f08c379a0000000000000000000000000000000000000000000000000000000008152600401611924906133ca565b60405180910390fd5b600073ffffffffffffffffffffffffffffffffffffffff168273ffffffffffffffffffffffffffffffffffffffff16141561199d576040517f08c379a00000000000000000000000000000000000000000000000000000000081526004016119949061326a565b60405180910390fd5b6119a8838383611f3f565b6119b3600082611720565b6001600360008573ffffffffffffffffffffffffffffffffffffffff1673ffffffffffffffffffffffffffffffffffffffff1681526020019081526020016000206000828254611a039190613624565b925050819055506001600360008473ffffffffffffffffffffffffffffffffffffffff1673ffffffffffffffffffffffffffffffffffffffff1681526020019081526020016000206000828254611a5a9190613569565b92505081905550816002600083815260200190815260200160002060006101000a81548173ffffffffffffffffffffffffffffffffffffffff021916908373ffffffffffffffffffffffffffffffffffffffff160217905550808273ffffffffffffffffffffffffffffffffffffffff168473ffffffffffffffffffffffffffffffffffffffff167fddf252ad1be2c89b69c2b068fc378daa952ba7f163c4a11628f55a4df523b3ef60405160405180910390a4505050565b600081600001549050919050565b611b3b828260405180602001604052806000815250611f44565b5050565b611b48826116b4565b611b87576040517f08c379a0000000000000000000000000000000000000000000000000000000008152600401611b7e9061332a565b60405180910390fd5b80600660008481526020019081526020016000209080519060200190611bae9291906124c4565b505050565b6001816000016000828254019250508190555050565b6000600760009054906101000a900473ffffffffffffffffffffffffffffffffffffffff16905081600760006101000a81548173ffffffffffffffffffffffffffffffffffffffff021916908373ffffffffffffffffffffffffffffffffffffffff1602179055508173ffffffffffffffffffffffffffffffffffffffff168173ffffffffffffffffffffffffffffffffffffffff167f8be0079c531659141344cd1fd0a4f28419497f9722a3daafe3b4186f6b6457e060405160405180910390a35050565b8173ffffffffffffffffffffffffffffffffffffffff168373ffffffffffffffffffffffffffffffffffffffff161415611cfe576040517f08c379a0000000000000000000000000000000000000000000000000000000008152600401611cf59061328a565b60405180910390fd5b80600560008573ffffffffffffffffffffffffffffffffffffffff1673ffffffffffffffffffffffffffffffffffffffff16815260200190815260200160002060008473ffffffffffffffffffffffffffffffffffffffff1673ffffffffffffffffffffffffffffffffffffffff16815260200190815260200160002060006101000a81548160ff0219169083151502179055508173ffffffffffffffffffffffffffffffffffffffff168373ffffffffffffffffffffffffffffffffffffffff167f17307eab39ab6107e8899845ad3d59bd9653f200f220920489ca2b5937696c3183604051611def91906131cd565b60405180910390a3505050565b611e078484846118b7565b611e1384848484611f9f565b611e52576040517f08c379a0000000000000000000000000000000000000000000000000000000008152600401611e499061320a565b60405180910390fd5b50505050565b606060405180602001604052806000815250905090565b6060611e7a826116b4565b611eb9576040517f08c379a0000000000000000000000000000000000000000000000000000000008152600401611eb0906133ea565b60405180910390fd5b6000611ec3611e58565b90506000815111611ee35760405180602001604052806000815250611f0e565b80611eed84612136565b604051602001611efe92919061311e565b6040516020818303038152906040525b915050919050565b60008151905060006a636f6e736f6c652e6c6f679050602083016000808483855afa5050505050565b505050565b611f4e83836122e3565b611f5b6000848484611f9f565b611f9a576040517f08c379a0000000000000000000000000000000000000000000000000000000008152600401611f919061320a565b60405180910390fd5b505050565b6000611fc08473ffffffffffffffffffffffffffffffffffffffff166124b1565b15612129578373ffffffffffffffffffffffffffffffffffffffff1663150b7a02611fe96116ac565b8786866040518563ffffffff1660e01b815260040161200b9493929190613181565b602060405180830381600087803b15801561202557600080fd5b505af192505050801561205657506040513d601f19601f820116820180604052508101906120539190612899565b60015b6120d9573d8060008114612086576040519150601f19603f3d011682016040523d82523d6000602084013e61208b565b606091505b506000815114156120d1576040517f08c379a00000000000000000000000000000000000000000000000000000000081526004016120c89061320a565b60405180910390fd5b805181602001fd5b63150b7a0260e01b7bffffffffffffffffffffffffffffffffffffffffffffffffffffffff1916817bffffffffffffffffffffffffffffffffffffffffffffffffffffffff19161491505061212e565b600190505b949350505050565b6060600082141561217e576040518060400160405280600181526020017f300000000000000000000000000000000000000000000000000000000000000081525090506122de565b600082905060005b600082146121b05780806121999061374e565b915050600a826121a991906135bf565b9150612186565b60008167ffffffffffffffff8111156121f2577f4e487b7100000000000000000000000000000000000000000000000000000000600052604160045260246000fd5b6040519080825280601f01601f1916602001820160405280156122245781602001600182028036833780820191505090505b5090505b600085146122d75760018261223d9190613624565b9150600a8561224c9190613797565b60306122589190613569565b60f81b818381518110612294577f4e487b7100000000000000000000000000000000000000000000000000000000600052603260045260246000fd5b60200101907effffffffffffffffffffffffffffffffffffffffffffffffffffffffffffff1916908160001a905350600a856122d091906135bf565b9450612228565b8093505050505b919050565b600073ffffffffffffffffffffffffffffffffffffffff168273ffffffffffffffffffffffffffffffffffffffff161415612353576040517f08c379a000000000000000000000000000000000000000000000000000000000815260040161234a9061334a565b60405180910390fd5b61235c816116b4565b1561239c576040517f08c379a00000000000000000000000000000000000000000000000000000000081526004016123939061324a565b60405180910390fd5b6123a860008383611f3f565b6001600360008473ffffffffffffffffffffffffffffffffffffffff1673ffffffffffffffffffffffffffffffffffffffff16815260200190815260200160002060008282546123f89190613569565b92505081905550816002600083815260200190815260200160002060006101000a81548173ffffffffffffffffffffffffffffffffffffffff021916908373ffffffffffffffffffffffffffffffffffffffff160217905550808273ffffffffffffffffffffffffffffffffffffffff16600073ffffffffffffffffffffffffffffffffffffffff167fddf252ad1be2c89b69c2b068fc378daa952ba7f163c4a11628f55a4df523b3ef60405160405180910390a45050565b600080823b905060008111915050919050565b8280546124d09061371c565b90600052602060002090601f0160209004810192826124f25760008555612539565b82601f1061250b57805160ff1916838001178555612539565b82800160010185558215612539579182015b8281111561253857825182559160200191906001019061251d565b5b509050612546919061254a565b5090565b5b8082111561256357600081600090555060010161254b565b5090565b600061257a612575846134b1565b613480565b90508281526020810184848401111561259257600080fd5b61259d8482856136da565b509392505050565b60006125b86125b3846134e1565b613480565b9050828152602081018484840111156125d057600080fd5b6125db8482856136da565b509392505050565b6000813590506125f281613895565b92915050565b600081359050612607816138ac565b92915050565b60008135905061261c816138c3565b92915050565b600081519050612631816138c3565b92915050565b600082601f83011261264857600080fd5b8135612658848260208601612567565b91505092915050565b600082601f83011261267257600080fd5b81356126828482602086016125a5565b91505092915050565b60008135905061269a816138da565b92915050565b6000602082840312156126b257600080fd5b60006126c0848285016125e3565b91505092915050565b600080604083850312156126dc57600080fd5b60006126ea858286016125e3565b92505060206126fb858286016125e3565b9150509250929050565b60008060006060848603121561271a57600080fd5b6000612728868287016125e3565b9350506020612739868287016125e3565b925050604061274a8682870161268b565b9150509250925092565b6000806000806080858703121561276a57600080fd5b6000612778878288016125e3565b9450506020612789878288016125e3565b935050604061279a8782880161268b565b925050606085013567ffffffffffffffff8111156127b757600080fd5b6127c387828801612637565b91505092959194509250565b600080604083850312156127e257600080fd5b60006127f0858286016125e3565b9250506020612801858286016125f8565b9150509250929050565b6000806040838503121561281e57600080fd5b600061282c858286016125e3565b925050602061283d8582860161268b565b9150509250929050565b60006020828403121561285957600080fd5b6000612867848285016125f8565b91505092915050565b60006020828403121561288257600080fd5b60006128908482850161260d565b91505092915050565b6000602082840312156128ab57600080fd5b60006128b984828501612622565b91505092915050565b6000602082840312156128d457600080fd5b600082013567ffffffffffffffff8111156128ee57600080fd5b6128fa84828501612661565b91505092915050565b60006020828403121561291557600080fd5b60006129238482850161268b565b91505092915050565b61293581613658565b82525050565b6129448161366a565b82525050565b600061295582613526565b61295f818561353c565b935061296f8185602086016136e9565b61297881613884565b840191505092915050565b600061298e82613531565b612998818561354d565b93506129a88185602086016136e9565b6129b181613884565b840191505092915050565b60006129c782613531565b6129d1818561355e565b93506129e18185602086016136e9565b80840191505092915050565b600081546129fa8161371c565b612a04818661355e565b94506001821660008114612a1f5760018114612a3057612a63565b60ff19831686528186019350612a63565b612a3985613511565b60005b83811015612a5b57815481890152600182019150602081019050612a3c565b838801955050505b50505092915050565b6000612a7960328361354d565b91507f4552433732313a207472616e7366657220746f206e6f6e20455243373231526560008301527f63656976657220696d706c656d656e74657200000000000000000000000000006020830152604082019050919050565b6000612adf60268361354d565b91507f4f776e61626c653a206e6577206f776e657220697320746865207a65726f206160008301527f64647265737300000000000000000000000000000000000000000000000000006020830152604082019050919050565b6000612b45601c8361354d565b91507f4552433732313a20746f6b656e20616c7265616479206d696e746564000000006000830152602082019050919050565b6000612b8560248361354d565b91507f4552433732313a207472616e7366657220746f20746865207a65726f2061646460008301527f72657373000000000000000000000000000000000000000000000000000000006020830152604082019050919050565b6000612beb60198361354d565b91507f4552433732313a20617070726f766520746f2063616c6c6572000000000000006000830152602082019050919050565b6000612c2b602c8361354d565b91507f4552433732313a206f70657261746f7220717565727920666f72206e6f6e657860008301527f697374656e7420746f6b656e00000000000000000000000000000000000000006020830152604082019050919050565b6000612c9160388361354d565b91507f4552433732313a20617070726f76652063616c6c6572206973206e6f74206f7760008301527f6e6572206e6f7220617070726f76656420666f7220616c6c00000000000000006020830152604082019050919050565b6000612cf7602a8361354d565b91507f4552433732313a2062616c616e636520717565727920666f7220746865207a6560008301527f726f2061646472657373000000000000000000000000000000000000000000006020830152604082019050919050565b6000612d5d60298361354d565b91507f4552433732313a206f776e657220717565727920666f72206e6f6e657869737460008301527f656e7420746f6b656e00000000000000000000000000000000000000000000006020830152604082019050919050565b6000612dc3602e8361354d565b91507f45524337323155524953746f726167653a2055524920736574206f66206e6f6e60008301527f6578697374656e7420746f6b656e0000000000000000000000000000000000006020830152604082019050919050565b6000612e2960208361354d565b91507f4552433732313a206d696e7420746f20746865207a65726f20616464726573736000830152602082019050919050565b6000612e6960318361354d565b91507f45524337323155524953746f726167653a2055524920717565727920666f722060008301527f6e6f6e6578697374656e7420746f6b656e0000000000000000000000000000006020830152604082019050919050565b6000612ecf602c8361354d565b91507f4552433732313a20617070726f76656420717565727920666f72206e6f6e657860008301527f697374656e7420746f6b656e00000000000000000000000000000000000000006020830152604082019050919050565b6000612f3560208361354d565b91507f4f776e61626c653a2063616c6c6572206973206e6f7420746865206f776e65726000830152602082019050919050565b6000612f7560298361354d565b91507f4552433732313a207472616e73666572206f6620746f6b656e2074686174206960008301527f73206e6f74206f776e00000000000000000000000000000000000000000000006020830152604082019050919050565b6000612fdb602f8361354d565b91507f4552433732314d657461646174613a2055524920717565727920666f72206e6f60008301527f6e6578697374656e7420746f6b656e00000000000000000000000000000000006020830152604082019050919050565b600061304160218361354d565b91507f4552433732313a20617070726f76616c20746f2063757272656e74206f776e6560008301527f72000000000000000000000000000000000000000000000000000000000000006020830152604082019050919050565b60006130a760318361354d565b91507f4552433732313a207472616e736665722063616c6c6572206973206e6f74206f60008301527f776e6572206e6f7220617070726f7665640000000000000000000000000000006020830152604082019050919050565b613109816136a2565b82525050565b613118816136d0565b82525050565b600061312a82856129bc565b915061313682846129bc565b91508190509392505050565b600061314e82856129ed565b915061315a82846129bc565b91508190509392505050565b600060208201905061317b600083018461292c565b92915050565b6000608082019050613196600083018761292c565b6131a3602083018661292c565b6131b0604083018561310f565b81810360608301526131c2818461294a565b905095945050505050565b60006020820190506131e2600083018461293b565b92915050565b600060208201905081810360008301526132028184612983565b905092915050565b6000602082019050818103600083015261322381612a6c565b9050919050565b6000602082019050818103600083015261324381612ad2565b9050919050565b6000602082019050818103600083015261326381612b38565b9050919050565b6000602082019050818103600083015261328381612b78565b9050919050565b600060208201905081810360008301526132a381612bde565b9050919050565b600060208201905081810360008301526132c381612c1e565b9050919050565b600060208201905081810360008301526132e381612c84565b9050919050565b6000602082019050818103600083015261330381612cea565b9050919050565b6000602082019050818103600083015261332381612d50565b9050919050565b6000602082019050818103600083015261334381612db6565b9050919050565b6000602082019050818103600083015261336381612e1c565b9050919050565b6000602082019050818103600083015261338381612e5c565b9050919050565b600060208201905081810360008301526133a381612ec2565b9050919050565b600060208201905081810360008301526133c381612f28565b9050919050565b600060208201905081810360008301526133e381612f68565b9050919050565b6000602082019050818103600083015261340381612fce565b9050919050565b6000602082019050818103600083015261342381613034565b9050919050565b600060208201905081810360008301526134438161309a565b9050919050565b600060208201905061345f6000830184613100565b92915050565b600060208201905061347a600083018461310f565b92915050565b6000604051905081810181811067ffffffffffffffff821117156134a7576134a6613855565b5b8060405250919050565b600067ffffffffffffffff8211156134cc576134cb613855565b5b601f19601f8301169050602081019050919050565b600067ffffffffffffffff8211156134fc576134fb613855565b5b601f19601f8301169050602081019050919050565b60008190508160005260206000209050919050565b600081519050919050565b600081519050919050565b600082825260208201905092915050565b600082825260208201905092915050565b600081905092915050565b6000613574826136d0565b915061357f836136d0565b9250827fffffffffffffffffffffffffffffffffffffffffffffffffffffffffffffffff038211156135b4576135b36137c8565b5b828201905092915050565b60006135ca826136d0565b91506135d5836136d0565b9250826135e5576135e46137f7565b5b828204905092915050565b60006135fb826136a2565b9150613606836136a2565b925082821015613619576136186137c8565b5b828203905092915050565b600061362f826136d0565b915061363a836136d0565b92508282101561364d5761364c6137c8565b5b828203905092915050565b6000613663826136b0565b9050919050565b60008115159050919050565b60007fffffffff0000000000000000000000000000000000000000000000000000000082169050919050565b600061ffff82169050919050565b600073ffffffffffffffffffffffffffffffffffffffff82169050919050565b6000819050919050565b82818337600083830152505050565b60005b838110156137075780820151818401526020810190506136ec565b83811115613716576000848401525b50505050565b6000600282049050600182168061373457607f821691505b6020821081141561374857613747613826565b5b50919050565b6000613759826136d0565b91507fffffffffffffffffffffffffffffffffffffffffffffffffffffffffffffffff82141561378c5761378b6137c8565b5b600182019050919050565b60006137a2826136d0565b91506137ad836136d0565b9250826137bd576137bc6137f7565b5b828206905092915050565b7f4e487b7100000000000000000000000000000000000000000000000000000000600052601160045260246000fd5b7f4e487b7100000000000000000000000000000000000000000000000000000000600052601260045260246000fd5b7f4e487b7100000000000000000000000000000000000000000000000000000000600052602260045260246000fd5b7f4e487b7100000000000000000000000000000000000000000000000000000000600052604160045260246000fd5b6000601f19601f8301169050919050565b61389e81613658565b81146138a957600080fd5b50565b6138b58161366a565b81146138c057600080fd5b50565b6138cc81613676565b81146138d757600080fd5b50565b6138e3816136d0565b81146138ee57600080fd5b5056fea2646970667358221220be567d38686dabdaea5e21eb80dd0394eafd9d0b997bf02a0bcc4f734a5cad6a64736f6c63430008000033",
  "linkReferences": {},
  "deployedLinkReferences": {}
}