{
  "_format": "hh-sol-artifact-1",
  "contractName": "RaqNFT",
  "sourceName": "contracts/RaqNFT.sol",
  "abi": [
    {
      "inputs": [],
      "stateMutability": "nonpayable",
      "type": "constructor"
    },
    {
      "anonymous": false,
      "inputs": [
        {
          "indexed": true,
          "internalType": "address",
          "name": "owner",
          "type": "address"
        },
        {
          "indexed": true,
          "internalType": "address",
          "name": "approved",
          "type": "address"
        },
        {
          "indexed": true,
          "internalType": "uint256",
          "name": "tokenId",
          "type": "uint256"
        }
      ],
      "name": "Approval",
      "type": "event"
    },
    {
      "anonymous": false,
      "inputs": [
        {
          "indexed": true,
          "internalType": "address",
          "name": "owner",
          "type": "address"
        },
        {
          "indexed": true,
          "internalType": "address",
          "name": "operator",
          "type": "address"
        },
        {
          "indexed": false,
          "internalType": "bool",
          "name": "approved",
          "type": "bool"
        }
      ],
      "name": "ApprovalForAll",
      "type": "event"
    },
    {
      "anonymous": false,
      "inputs": [
        {
          "indexed": true,
          "internalType": "address",
          "name": "previousOwner",
          "type": "address"
        },
        {
          "indexed": true,
          "internalType": "address",
          "name": "newOwner",
          "type": "address"
        }
      ],
      "name": "OwnershipTransferred",
      "type": "event"
    },
    {
      "anonymous": false,
      "inputs": [
        {
          "indexed": true,
          "internalType": "address",
          "name": "from",
          "type": "address"
        },
        {
          "indexed": true,
          "internalType": "address",
          "name": "to",
          "type": "address"
        },
        {
          "indexed": true,
          "internalType": "uint256",
          "name": "tokenId",
          "type": "uint256"
        }
      ],
      "name": "Transfer",
      "type": "event"
    },
    {
      "inputs": [
        {
          "internalType": "address",
          "name": "to",
          "type": "address"
        },
        {
          "internalType": "uint256",
          "name": "tokenId",
          "type": "uint256"
        }
      ],
      "name": "approve",
      "outputs": [],
      "stateMutability": "nonpayable",
      "type": "function"
    },
    {
      "inputs": [
        {
          "internalType": "address",
          "name": "owner",
          "type": "address"
        }
      ],
      "name": "balanceOf",
      "outputs": [
        {
          "internalType": "uint256",
          "name": "",
          "type": "uint256"
        }
      ],
      "stateMutability": "view",
      "type": "function"
    },
    {
      "inputs": [],
      "name": "cost",
      "outputs": [
        {
          "internalType": "uint256",
          "name": "",
          "type": "uint256"
        }
      ],
      "stateMutability": "view",
      "type": "function"
    },
    {
      "inputs": [
        {
          "internalType": "uint256",
          "name": "tokenId",
          "type": "uint256"
        }
      ],
      "name": "getApproved",
      "outputs": [
        {
          "internalType": "address",
          "name": "",
          "type": "address"
        }
      ],
      "stateMutability": "view",
      "type": "function"
    },
    {
      "inputs": [
        {
          "internalType": "address",
          "name": "owner",
          "type": "address"
        },
        {
          "internalType": "address",
          "name": "operator",
          "type": "address"
        }
      ],
      "name": "isApprovedForAll",
      "outputs": [
        {
          "internalType": "bool",
          "name": "",
          "type": "bool"
        }
      ],
      "stateMutability": "view",
      "type": "function"
    },
    {
      "inputs": [],
      "name": "jsonBase",
      "outputs": [
        {
          "internalType": "string",
          "name": "",
          "type": "string"
        }
      ],
      "stateMutability": "view",
      "type": "function"
    },
    {
      "inputs": [
        {
          "internalType": "string",
          "name": "_base64",
          "type": "string"
        }
      ],
      "name": "makeAnEpicNFT",
      "outputs": [],
      "stateMutability": "payable",
      "type": "function"
    },
    {
      "inputs": [],
      "name": "maxSupply",
      "outputs": [
        {
          "internalType": "uint256",
          "name": "",
          "type": "uint256"
        }
      ],
      "stateMutability": "view",
      "type": "function"
    },
    {
      "inputs": [],
      "name": "name",
      "outputs": [
        {
          "internalType": "string",
          "name": "",
          "type": "string"
        }
      ],
      "stateMutability": "view",
      "type": "function"
    },
    {
      "inputs": [],
      "name": "owner",
      "outputs": [
        {
          "internalType": "address",
          "name": "",
          "type": "address"
        }
      ],
      "stateMutability": "view",
      "type": "function"
    },
    {
      "inputs": [
        {
          "internalType": "uint256",
          "name": "tokenId",
          "type": "uint256"
        }
      ],
      "name": "ownerOf",
      "outputs": [
        {
          "internalType": "address",
          "name": "",
          "type": "address"
        }
      ],
      "stateMutability": "view",
      "type": "function"
    },
    {
      "inputs": [
        {
          "internalType": "bool",
          "name": "_state",
          "type": "bool"
        }
      ],
      "name": "pause",
      "outputs": [],
      "stateMutability": "nonpayable",
      "type": "function"
    },
    {
      "inputs": [],
      "name": "paused",
      "outputs": [
        {
          "internalType": "bool",
          "name": "",
          "type": "bool"
        }
      ],
      "stateMutability": "view",
      "type": "function"
    },
    {
      "inputs": [
        {
          "internalType": "address",
          "name": "_user",
          "type": "address"
        }
      ],
      "name": "removeWhitelistUser",
      "outputs": [],
      "stateMutability": "nonpayable",
      "type": "function"
    },
    {
      "inputs": [],
      "name": "renounceOwnership",
      "outputs": [],
      "stateMutability": "nonpayable",
      "type": "function"
    },
    {
      "inputs": [
        {
          "internalType": "address",
          "name": "from",
          "type": "address"
        },
        {
          "internalType": "address",
          "name": "to",
          "type": "address"
        },
        {
          "internalType": "uint256",
          "name": "tokenId",
          "type": "uint256"
        }
      ],
      "name": "safeTransferFrom",
      "outputs": [],
      "stateMutability": "nonpayable",
      "type": "function"
    },
    {
      "inputs": [
        {
          "internalType": "address",
          "name": "from",
          "type": "address"
        },
        {
          "internalType": "address",
          "name": "to",
          "type": "address"
        },
        {
          "internalType": "uint256",
          "name": "tokenId",
          "type": "uint256"
        },
        {
          "internalType": "bytes",
          "name": "_data",
          "type": "bytes"
        }
      ],
      "name": "safeTransferFrom",
      "outputs": [],
      "stateMutability": "nonpayable",
      "type": "function"
    },
    {
      "inputs": [
        {
          "internalType": "address",
          "name": "operator",
          "type": "address"
        },
        {
          "internalType": "bool",
          "name": "approved",
          "type": "bool"
        }
      ],
      "name": "setApprovalForAll",
      "outputs": [],
      "stateMutability": "nonpayable",
      "type": "function"
    },
    {
      "inputs": [
        {
          "internalType": "uint256",
          "name": "_newCost",
          "type": "uint256"
        }
      ],
      "name": "setCost",
      "outputs": [],
      "stateMutability": "nonpayable",
      "type": "function"
    },
    {
      "inputs": [
        {
          "internalType": "bytes4",
          "name": "interfaceId",
          "type": "bytes4"
        }
      ],
      "name": "supportsInterface",
      "outputs": [
        {
          "internalType": "bool",
          "name": "",
          "type": "bool"
        }
      ],
      "stateMutability": "view",
      "type": "function"
    },
    {
      "inputs": [],
      "name": "symbol",
      "outputs": [
        {
          "internalType": "string",
          "name": "",
          "type": "string"
        }
      ],
      "stateMutability": "view",
      "type": "function"
    },
    {
      "inputs": [
        {
          "internalType": "uint256",
          "name": "tokenId",
          "type": "uint256"
        }
      ],
      "name": "tokenURI",
      "outputs": [
        {
          "internalType": "string",
          "name": "",
          "type": "string"
        }
      ],
      "stateMutability": "view",
      "type": "function"
    },
    {
      "inputs": [
        {
          "internalType": "address",
          "name": "from",
          "type": "address"
        },
        {
          "internalType": "address",
          "name": "to",
          "type": "address"
        },
        {
          "internalType": "uint256",
          "name": "tokenId",
          "type": "uint256"
        }
      ],
      "name": "transferFrom",
      "outputs": [],
      "stateMutability": "nonpayable",
      "type": "function"
    },
    {
      "inputs": [
        {
          "internalType": "address",
          "name": "newOwner",
          "type": "address"
        }
      ],
      "name": "transferOwnership",
      "outputs": [],
      "stateMutability": "nonpayable",
      "type": "function"
    },
    {
      "inputs": [
        {
          "internalType": "address",
          "name": "_user",
          "type": "address"
        }
      ],
      "name": "whitelistUser",
      "outputs": [],
      "stateMutability": "nonpayable",
      "type": "function"
    },
    {
      "inputs": [
        {
          "internalType": "address",
          "name": "",
          "type": "address"
        }
      ],
      "name": "whitelisted",
      "outputs": [
        {
          "internalType": "bool",
          "name": "",
          "type": "bool"
        }
      ],
      "stateMutability": "view",
      "type": "function"
    },
    {
      "inputs": [],
      "name": "withdraw",
      "outputs": [],
      "stateMutability": "payable",
      "type": "function"
    }
  ],
  "bytecode": "0x608060405267016345785d8a00006009556103e8600a556000600b60006101000a81548160ff0219169083151502179055506040518060400160405280601d81526020017f646174613a6170706c69636174696f6e2f6a736f6e3b6261736536342c000000815250600c90805190602001906200007e92919062000338565b503480156200008c57600080fd5b506040518060400160405280600681526020017f5261714e465400000000000000000000000000000000000000000000000000008152506040518060400160405280600381526020017f524151000000000000000000000000000000000000000000000000000000000081525081600090805190602001906200011192919062000338565b5080600190805190602001906200012a92919062000338565b5050506200014d620001416200019e60201b60201c565b620001a660201b60201c565b620001986040518060400160405280601681526020017f48656c6c6f205261712120497420697320616c697665000000000000000000008152506200026c60201b6200154a1760201c565b62000515565b600033905090565b6000600760009054906101000a900473ffffffffffffffffffffffffffffffffffffffff16905081600760006101000a81548173ffffffffffffffffffffffffffffffffffffffff021916908373ffffffffffffffffffffffffffffffffffffffff1602179055508173ffffffffffffffffffffffffffffffffffffffff168173ffffffffffffffffffffffffffffffffffffffff167f8be0079c531659141344cd1fd0a4f28419497f9722a3daafe3b4186f6b6457e060405160405180910390a35050565b6200030c8160405160240162000283919062000429565b6040516020818303038152906040527f41304fac000000000000000000000000000000000000000000000000000000007bffffffffffffffffffffffffffffffffffffffffffffffffffffffff19166020820180517bffffffffffffffffffffffffffffffffffffffffffffffffffffffff83818316178352505050506200030f60201b60201c565b50565b60008151905060006a636f6e736f6c652e6c6f679050602083016000808483855afa5050505050565b82805462000346906200049f565b90600052602060002090601f0160209004810192826200036a5760008555620003b6565b82601f106200038557805160ff1916838001178555620003b6565b82800160010185558215620003b6579182015b82811115620003b557825182559160200191906001019062000398565b5b509050620003c59190620003c9565b5090565b5b80821115620003e4576000816000905550600101620003ca565b5090565b6000620003f5826200044d565b62000401818562000458565b93506200041381856020860162000469565b6200041e8162000504565b840191505092915050565b60006020820190508181036000830152620004458184620003e8565b905092915050565b600081519050919050565b600082825260208201905092915050565b60005b83811015620004895780820151818401526020810190506200046c565b8381111562000499576000848401525b50505050565b60006002820490506001821680620004b857607f821691505b60208210811415620004cf57620004ce620004d5565b5b50919050565b7f4e487b7100000000000000000000000000000000000000000000000000000000600052602260045260246000fd5b6000601f19601f8301169050919050565b61385c80620005256000396000f3fe60806040526004361061019c5760003560e01c80634a4c560d116100ec578063a22cb4651161008a578063d5abeb0111610064578063d5abeb0114610582578063d936547e146105ad578063e985e9c5146105ea578063f2fde38b146106275761019c565b8063a22cb465146104f3578063b88d4fde1461051c578063c87b56dd146105455761019c565b806370a08231116100c657806370a0823114610449578063715018a6146104865780638da5cb5b1461049d57806395d89b41146104c85761019c565b80634a4c560d146103b85780635c975abb146103e15780636352211e1461040c5761019c565b806323b872dd116101595780633ccfd60b116101335780633ccfd60b14610331578063420c48591461033b57806342842e0e1461036657806344a0d68a1461038f5761019c565b806323b872dd146102c357806330cc7ae0146102ec57806339fa8daf146103155761019c565b806301ffc9a7146101a157806302329a29146101de57806306fdde0314610207578063081812fc14610232578063095ea7b31461026f57806313faede614610298575b600080fd5b3480156101ad57600080fd5b506101c860048036038101906101c39190612811565b610650565b6040516101d5919061315f565b60405180910390f35b3480156101ea57600080fd5b50610205600480360381019061020091906127e8565b610732565b005b34801561021357600080fd5b5061021c6107cb565b604051610229919061317a565b60405180910390f35b34801561023e57600080fd5b50610259600480360381019061025491906128a4565b61085d565b60405161026691906130f8565b60405180910390f35b34801561027b57600080fd5b50610296600480360381019061029191906127ac565b6108e2565b005b3480156102a457600080fd5b506102ad6109fa565b6040516102ba91906133dc565b60405180910390f35b3480156102cf57600080fd5b506102ea60048036038101906102e591906126a6565b610a00565b005b3480156102f857600080fd5b50610313600480360381019061030e9190612641565b610a60565b005b61032f600480360381019061032a9190612863565b610b37565b005b610339610c46565b005b34801561034757600080fd5b50610350610d02565b60405161035d919061317a565b60405180910390f35b34801561037257600080fd5b5061038d600480360381019061038891906126a6565b610d90565b005b34801561039b57600080fd5b506103b660048036038101906103b191906128a4565b610db0565b005b3480156103c457600080fd5b506103df60048036038101906103da9190612641565b610e36565b005b3480156103ed57600080fd5b506103f6610f0d565b604051610403919061315f565b60405180910390f35b34801561041857600080fd5b50610433600480360381019061042e91906128a4565b610f20565b60405161044091906130f8565b60405180910390f35b34801561045557600080fd5b50610470600480360381019061046b9190612641565b610fd2565b60405161047d91906133dc565b60405180910390f35b34801561049257600080fd5b5061049b61108a565b005b3480156104a957600080fd5b506104b2611112565b6040516104bf91906130f8565b60405180910390f35b3480156104d457600080fd5b506104dd61113c565b6040516104ea919061317a565b60405180910390f35b3480156104ff57600080fd5b5061051a60048036038101906105159190612770565b6111ce565b005b34801561052857600080fd5b50610543600480360381019061053e91906126f5565b6111e4565b005b34801561055157600080fd5b5061056c600480360381019061056791906128a4565b611246565b604051610579919061317a565b60405180910390f35b34801561058e57600080fd5b50610597611398565b6040516105a491906133dc565b60405180910390f35b3480156105b957600080fd5b506105d460048036038101906105cf9190612641565b61139e565b6040516105e1919061315f565b60405180910390f35b3480156105f657600080fd5b50610611600480360381019061060c919061266a565b6113be565b60405161061e919061315f565b60405180910390f35b34801561063357600080fd5b5061064e60048036038101906106499190612641565b611452565b005b60007f80ac58cd000000000000000000000000000000000000000000000000000000007bffffffffffffffffffffffffffffffffffffffffffffffffffffffff1916827bffffffffffffffffffffffffffffffffffffffffffffffffffffffff1916148061071b57507f5b5e139f000000000000000000000000000000000000000000000000000000007bffffffffffffffffffffffffffffffffffffffffffffffffffffffff1916827bffffffffffffffffffffffffffffffffffffffffffffffffffffffff1916145b8061072b575061072a826115e3565b5b9050919050565b61073a61164d565b73ffffffffffffffffffffffffffffffffffffffff16610758611112565b73ffffffffffffffffffffffffffffffffffffffff16146107ae576040517f08c379a00000000000000000000000000000000000000000000000000000000081526004016107a59061333c565b60405180910390fd5b80600b60006101000a81548160ff02191690831515021790555050565b6060600080546107da90613651565b80601f016020809104026020016040519081016040528092919081815260200182805461080690613651565b80156108535780601f1061082857610100808354040283529160200191610853565b820191906000526020600020905b81548152906001019060200180831161083657829003601f168201915b5050505050905090565b600061086882611655565b6108a7576040517f08c379a000000000000000000000000000000000000000000000000000000000815260040161089e9061331c565b60405180910390fd5b6004600083815260200190815260200160002060009054906101000a900473ffffffffffffffffffffffffffffffffffffffff169050919050565b60006108ed82610f20565b90508073ffffffffffffffffffffffffffffffffffffffff168373ffffffffffffffffffffffffffffffffffffffff16141561095e576040517f08c379a00000000000000000000000000000000000000000000000000000000081526004016109559061339c565b60405180910390fd5b8073ffffffffffffffffffffffffffffffffffffffff1661097d61164d565b73ffffffffffffffffffffffffffffffffffffffff1614806109ac57506109ab816109a661164d565b6113be565b5b6109eb576040517f08c379a00000000000000000000000000000000000000000000000000000000081526004016109e29061325c565b60405180910390fd5b6109f583836116c1565b505050565b60095481565b610a11610a0b61164d565b8261177a565b610a50576040517f08c379a0000000000000000000000000000000000000000000000000000000008152600401610a47906133bc565b60405180910390fd5b610a5b838383611858565b505050565b610a6861164d565b73ffffffffffffffffffffffffffffffffffffffff16610a86611112565b73ffffffffffffffffffffffffffffffffffffffff1614610adc576040517f08c379a0000000000000000000000000000000000000000000000000000000008152600401610ad39061333c565b60405180910390fd5b6000600d60008373ffffffffffffffffffffffffffffffffffffffff1673ffffffffffffffffffffffffffffffffffffffff16815260200190815260200160002060006101000a81548160ff02191690831515021790555050565b600b60009054906101000a900460ff1615610b5157600080fd5b610b59611112565b73ffffffffffffffffffffffffffffffffffffffff163373ffffffffffffffffffffffffffffffffffffffff1614610bf45760011515600d60003373ffffffffffffffffffffffffffffffffffffffff1673ffffffffffffffffffffffffffffffffffffffff16815260200190815260200160002060009054906101000a900460ff16151514610bf357600954341015610bf257600080fd5b5b5b6000610c006008611ab4565b9050610c0c3382611ac2565b610c3881600c84604051602001610c249291906130d4565b604051602081830303815290604052611ae0565b610c426008611b54565b5050565b610c4e61164d565b73ffffffffffffffffffffffffffffffffffffffff16610c6c611112565b73ffffffffffffffffffffffffffffffffffffffff1614610cc2576040517f08c379a0000000000000000000000000000000000000000000000000000000008152600401610cb99061333c565b60405180910390fd5b3373ffffffffffffffffffffffffffffffffffffffff166108fc479081150290604051600060405180830381858888f19350505050610d0057600080fd5b565b600c8054610d0f90613651565b80601f0160208091040260200160405190810160405280929190818152602001828054610d3b90613651565b8015610d885780601f10610d5d57610100808354040283529160200191610d88565b820191906000526020600020905b815481529060010190602001808311610d6b57829003601f168201915b505050505081565b610dab838383604051806020016040528060008152506111e4565b505050565b610db861164d565b73ffffffffffffffffffffffffffffffffffffffff16610dd6611112565b73ffffffffffffffffffffffffffffffffffffffff1614610e2c576040517f08c379a0000000000000000000000000000000000000000000000000000000008152600401610e239061333c565b60405180910390fd5b8060098190555050565b610e3e61164d565b73ffffffffffffffffffffffffffffffffffffffff16610e5c611112565b73ffffffffffffffffffffffffffffffffffffffff1614610eb2576040517f08c379a0000000000000000000000000000000000000000000000000000000008152600401610ea99061333c565b60405180910390fd5b6001600d60008373ffffffffffffffffffffffffffffffffffffffff1673ffffffffffffffffffffffffffffffffffffffff16815260200190815260200160002060006101000a81548160ff02191690831515021790555050565b600b60009054906101000a900460ff1681565b6000806002600084815260200190815260200160002060009054906101000a900473ffffffffffffffffffffffffffffffffffffffff169050600073ffffffffffffffffffffffffffffffffffffffff168173ffffffffffffffffffffffffffffffffffffffff161415610fc9576040517f08c379a0000000000000000000000000000000000000000000000000000000008152600401610fc09061329c565b60405180910390fd5b80915050919050565b60008073ffffffffffffffffffffffffffffffffffffffff168273ffffffffffffffffffffffffffffffffffffffff161415611043576040517f08c379a000000000000000000000000000000000000000000000000000000000815260040161103a9061327c565b60405180910390fd5b600360008373ffffffffffffffffffffffffffffffffffffffff1673ffffffffffffffffffffffffffffffffffffffff168152602001908152602001600020549050919050565b61109261164d565b73ffffffffffffffffffffffffffffffffffffffff166110b0611112565b73ffffffffffffffffffffffffffffffffffffffff1614611106576040517f08c379a00000000000000000000000000000000000000000000000000000000081526004016110fd9061333c565b60405180910390fd5b6111106000611b6a565b565b6000600760009054906101000a900473ffffffffffffffffffffffffffffffffffffffff16905090565b60606001805461114b90613651565b80601f016020809104026020016040519081016040528092919081815260200182805461117790613651565b80156111c45780601f10611199576101008083540402835291602001916111c4565b820191906000526020600020905b8154815290600101906020018083116111a757829003601f168201915b5050505050905090565b6111e06111d961164d565b8383611c30565b5050565b6111f56111ef61164d565b8361177a565b611234576040517f08c379a000000000000000000000000000000000000000000000000000000000815260040161122b906133bc565b60405180910390fd5b61124084848484611d9d565b50505050565b606061125182611655565b611290576040517f08c379a0000000000000000000000000000000000000000000000000000000008152600401611287906132fc565b60405180910390fd5b60006006600084815260200190815260200160002080546112b090613651565b80601f01602080910402602001604051908101604052809291908181526020018280546112dc90613651565b80156113295780601f106112fe57610100808354040283529160200191611329565b820191906000526020600020905b81548152906001019060200180831161130c57829003601f168201915b50505050509050600061133a611df9565b9050600081511415611350578192505050611393565b60008251111561138557808260405160200161136d9291906130b0565b60405160208183030381529060405292505050611393565b61138e84611e10565b925050505b919050565b600a5481565b600d6020528060005260406000206000915054906101000a900460ff1681565b6000600560008473ffffffffffffffffffffffffffffffffffffffff1673ffffffffffffffffffffffffffffffffffffffff16815260200190815260200160002060008373ffffffffffffffffffffffffffffffffffffffff1673ffffffffffffffffffffffffffffffffffffffff16815260200190815260200160002060009054906101000a900460ff16905092915050565b61145a61164d565b73ffffffffffffffffffffffffffffffffffffffff16611478611112565b73ffffffffffffffffffffffffffffffffffffffff16146114ce576040517f08c379a00000000000000000000000000000000000000000000000000000000081526004016114c59061333c565b60405180910390fd5b600073ffffffffffffffffffffffffffffffffffffffff168173ffffffffffffffffffffffffffffffffffffffff16141561153e576040517f08c379a0000000000000000000000000000000000000000000000000000000008152600401611535906131bc565b60405180910390fd5b61154781611b6a565b50565b6115e08160405160240161155e919061317a565b6040516020818303038152906040527f41304fac000000000000000000000000000000000000000000000000000000007bffffffffffffffffffffffffffffffffffffffffffffffffffffffff19166020820180517bffffffffffffffffffffffffffffffffffffffffffffffffffffffff8381831617835250505050611eb7565b50565b60007f01ffc9a7000000000000000000000000000000000000000000000000000000007bffffffffffffffffffffffffffffffffffffffffffffffffffffffff1916827bffffffffffffffffffffffffffffffffffffffffffffffffffffffff1916149050919050565b600033905090565b60008073ffffffffffffffffffffffffffffffffffffffff166002600084815260200190815260200160002060009054906101000a900473ffffffffffffffffffffffffffffffffffffffff1673ffffffffffffffffffffffffffffffffffffffff1614159050919050565b816004600083815260200190815260200160002060006101000a81548173ffffffffffffffffffffffffffffffffffffffff021916908373ffffffffffffffffffffffffffffffffffffffff160217905550808273ffffffffffffffffffffffffffffffffffffffff1661173483610f20565b73ffffffffffffffffffffffffffffffffffffffff167f8c5be1e5ebec7d5bd14f71427d1e84f3dd0314c0f7b2291e5b200ac8c7c3b92560405160405180910390a45050565b600061178582611655565b6117c4576040517f08c379a00000000000000000000000000000000000000000000000000000000081526004016117bb9061323c565b60405180910390fd5b60006117cf83610f20565b90508073ffffffffffffffffffffffffffffffffffffffff168473ffffffffffffffffffffffffffffffffffffffff16148061183e57508373ffffffffffffffffffffffffffffffffffffffff166118268461085d565b73ffffffffffffffffffffffffffffffffffffffff16145b8061184f575061184e81856113be565b5b91505092915050565b8273ffffffffffffffffffffffffffffffffffffffff1661187882610f20565b73ffffffffffffffffffffffffffffffffffffffff16146118ce576040517f08c379a00000000000000000000000000000000000000000000000000000000081526004016118c59061335c565b60405180910390fd5b600073ffffffffffffffffffffffffffffffffffffffff168273ffffffffffffffffffffffffffffffffffffffff16141561193e576040517f08c379a0000000000000000000000000000000000000000000000000000000008152600401611935906131fc565b60405180910390fd5b611949838383611ee0565b6119546000826116c1565b6001600360008573ffffffffffffffffffffffffffffffffffffffff1673ffffffffffffffffffffffffffffffffffffffff16815260200190815260200160002060008282546119a49190613567565b925050819055506001600360008473ffffffffffffffffffffffffffffffffffffffff1673ffffffffffffffffffffffffffffffffffffffff16815260200190815260200160002060008282546119fb91906134e0565b92505081905550816002600083815260200190815260200160002060006101000a81548173ffffffffffffffffffffffffffffffffffffffff021916908373ffffffffffffffffffffffffffffffffffffffff160217905550808273ffffffffffffffffffffffffffffffffffffffff168473ffffffffffffffffffffffffffffffffffffffff167fddf252ad1be2c89b69c2b068fc378daa952ba7f163c4a11628f55a4df523b3ef60405160405180910390a4505050565b600081600001549050919050565b611adc828260405180602001604052806000815250611ee5565b5050565b611ae982611655565b611b28576040517f08c379a0000000000000000000000000000000000000000000000000000000008152600401611b1f906132bc565b60405180910390fd5b80600660008481526020019081526020016000209080519060200190611b4f929190612465565b505050565b6001816000016000828254019250508190555050565b6000600760009054906101000a900473ffffffffffffffffffffffffffffffffffffffff16905081600760006101000a81548173ffffffffffffffffffffffffffffffffffffffff021916908373ffffffffffffffffffffffffffffffffffffffff1602179055508173ffffffffffffffffffffffffffffffffffffffff168173ffffffffffffffffffffffffffffffffffffffff167f8be0079c531659141344cd1fd0a4f28419497f9722a3daafe3b4186f6b6457e060405160405180910390a35050565b8173ffffffffffffffffffffffffffffffffffffffff168373ffffffffffffffffffffffffffffffffffffffff161415611c9f576040517f08c379a0000000000000000000000000000000000000000000000000000000008152600401611c969061321c565b60405180910390fd5b80600560008573ffffffffffffffffffffffffffffffffffffffff1673ffffffffffffffffffffffffffffffffffffffff16815260200190815260200160002060008473ffffffffffffffffffffffffffffffffffffffff1673ffffffffffffffffffffffffffffffffffffffff16815260200190815260200160002060006101000a81548160ff0219169083151502179055508173ffffffffffffffffffffffffffffffffffffffff168373ffffffffffffffffffffffffffffffffffffffff167f17307eab39ab6107e8899845ad3d59bd9653f200f220920489ca2b5937696c3183604051611d90919061315f565b60405180910390a3505050565b611da8848484611858565b611db484848484611f40565b611df3576040517f08c379a0000000000000000000000000000000000000000000000000000000008152600401611dea9061319c565b60405180910390fd5b50505050565b606060405180602001604052806000815250905090565b6060611e1b82611655565b611e5a576040517f08c379a0000000000000000000000000000000000000000000000000000000008152600401611e519061337c565b60405180910390fd5b6000611e64611df9565b90506000815111611e845760405180602001604052806000815250611eaf565b80611e8e846120d7565b604051602001611e9f9291906130b0565b6040516020818303038152906040525b915050919050565b60008151905060006a636f6e736f6c652e6c6f679050602083016000808483855afa5050505050565b505050565b611eef8383612284565b611efc6000848484611f40565b611f3b576040517f08c379a0000000000000000000000000000000000000000000000000000000008152600401611f329061319c565b60405180910390fd5b505050565b6000611f618473ffffffffffffffffffffffffffffffffffffffff16612452565b156120ca578373ffffffffffffffffffffffffffffffffffffffff1663150b7a02611f8a61164d565b8786866040518563ffffffff1660e01b8152600401611fac9493929190613113565b602060405180830381600087803b158015611fc657600080fd5b505af1925050508015611ff757506040513d601f19601f82011682018060405250810190611ff4919061283a565b60015b61207a573d8060008114612027576040519150601f19603f3d011682016040523d82523d6000602084013e61202c565b606091505b50600081511415612072576040517f08c379a00000000000000000000000000000000000000000000000000000000081526004016120699061319c565b60405180910390fd5b805181602001fd5b63150b7a0260e01b7bffffffffffffffffffffffffffffffffffffffffffffffffffffffff1916817bffffffffffffffffffffffffffffffffffffffffffffffffffffffff1916149150506120cf565b600190505b949350505050565b6060600082141561211f576040518060400160405280600181526020017f3000000000000000000000000000000000000000000000000000000000000000815250905061227f565b600082905060005b6000821461215157808061213a90613683565b915050600a8261214a9190613536565b9150612127565b60008167ffffffffffffffff811115612193577f4e487b7100000000000000000000000000000000000000000000000000000000600052604160045260246000fd5b6040519080825280601f01601f1916602001820160405280156121c55781602001600182028036833780820191505090505b5090505b60008514612278576001826121de9190613567565b9150600a856121ed91906136cc565b60306121f991906134e0565b60f81b818381518110612235577f4e487b7100000000000000000000000000000000000000000000000000000000600052603260045260246000fd5b60200101907effffffffffffffffffffffffffffffffffffffffffffffffffffffffffffff1916908160001a905350600a856122719190613536565b94506121c9565b8093505050505b919050565b600073ffffffffffffffffffffffffffffffffffffffff168273ffffffffffffffffffffffffffffffffffffffff1614156122f4576040517f08c379a00000000000000000000000000000000000000000000000000000000081526004016122eb906132dc565b60405180910390fd5b6122fd81611655565b1561233d576040517f08c379a0000000000000000000000000000000000000000000000000000000008152600401612334906131dc565b60405180910390fd5b61234960008383611ee0565b6001600360008473ffffffffffffffffffffffffffffffffffffffff1673ffffffffffffffffffffffffffffffffffffffff168152602001908152602001600020600082825461239991906134e0565b92505081905550816002600083815260200190815260200160002060006101000a81548173ffffffffffffffffffffffffffffffffffffffff021916908373ffffffffffffffffffffffffffffffffffffffff160217905550808273ffffffffffffffffffffffffffffffffffffffff16600073ffffffffffffffffffffffffffffffffffffffff167fddf252ad1be2c89b69c2b068fc378daa952ba7f163c4a11628f55a4df523b3ef60405160405180910390a45050565b600080823b905060008111915050919050565b82805461247190613651565b90600052602060002090601f01602090048101928261249357600085556124da565b82601f106124ac57805160ff19168380011785556124da565b828001600101855582156124da579182015b828111156124d95782518255916020019190600101906124be565b5b5090506124e791906124eb565b5090565b5b808211156125045760008160009055506001016124ec565b5090565b600061251b61251684613428565b6133f7565b90508281526020810184848401111561253357600080fd5b61253e84828561360f565b509392505050565b600061255961255484613458565b6133f7565b90508281526020810184848401111561257157600080fd5b61257c84828561360f565b509392505050565b600081359050612593816137ca565b92915050565b6000813590506125a8816137e1565b92915050565b6000813590506125bd816137f8565b92915050565b6000815190506125d2816137f8565b92915050565b600082601f8301126125e957600080fd5b81356125f9848260208601612508565b91505092915050565b600082601f83011261261357600080fd5b8135612623848260208601612546565b91505092915050565b60008135905061263b8161380f565b92915050565b60006020828403121561265357600080fd5b600061266184828501612584565b91505092915050565b6000806040838503121561267d57600080fd5b600061268b85828601612584565b925050602061269c85828601612584565b9150509250929050565b6000806000606084860312156126bb57600080fd5b60006126c986828701612584565b93505060206126da86828701612584565b92505060406126eb8682870161262c565b9150509250925092565b6000806000806080858703121561270b57600080fd5b600061271987828801612584565b945050602061272a87828801612584565b935050604061273b8782880161262c565b925050606085013567ffffffffffffffff81111561275857600080fd5b612764878288016125d8565b91505092959194509250565b6000806040838503121561278357600080fd5b600061279185828601612584565b92505060206127a285828601612599565b9150509250929050565b600080604083850312156127bf57600080fd5b60006127cd85828601612584565b92505060206127de8582860161262c565b9150509250929050565b6000602082840312156127fa57600080fd5b600061280884828501612599565b91505092915050565b60006020828403121561282357600080fd5b6000612831848285016125ae565b91505092915050565b60006020828403121561284c57600080fd5b600061285a848285016125c3565b91505092915050565b60006020828403121561287557600080fd5b600082013567ffffffffffffffff81111561288f57600080fd5b61289b84828501612602565b91505092915050565b6000602082840312156128b657600080fd5b60006128c48482850161262c565b91505092915050565b6128d68161359b565b82525050565b6128e5816135ad565b82525050565b60006128f68261349d565b61290081856134b3565b935061291081856020860161361e565b612919816137b9565b840191505092915050565b600061292f826134a8565b61293981856134c4565b935061294981856020860161361e565b612952816137b9565b840191505092915050565b6000612968826134a8565b61297281856134d5565b935061298281856020860161361e565b80840191505092915050565b6000815461299b81613651565b6129a581866134d5565b945060018216600081146129c057600181146129d157612a04565b60ff19831686528186019350612a04565b6129da85613488565b60005b838110156129fc578154818901526001820191506020810190506129dd565b838801955050505b50505092915050565b6000612a1a6032836134c4565b91507f4552433732313a207472616e7366657220746f206e6f6e20455243373231526560008301527f63656976657220696d706c656d656e74657200000000000000000000000000006020830152604082019050919050565b6000612a806026836134c4565b91507f4f776e61626c653a206e6577206f776e657220697320746865207a65726f206160008301527f64647265737300000000000000000000000000000000000000000000000000006020830152604082019050919050565b6000612ae6601c836134c4565b91507f4552433732313a20746f6b656e20616c7265616479206d696e746564000000006000830152602082019050919050565b6000612b266024836134c4565b91507f4552433732313a207472616e7366657220746f20746865207a65726f2061646460008301527f72657373000000000000000000000000000000000000000000000000000000006020830152604082019050919050565b6000612b8c6019836134c4565b91507f4552433732313a20617070726f766520746f2063616c6c6572000000000000006000830152602082019050919050565b6000612bcc602c836134c4565b91507f4552433732313a206f70657261746f7220717565727920666f72206e6f6e657860008301527f697374656e7420746f6b656e00000000000000000000000000000000000000006020830152604082019050919050565b6000612c326038836134c4565b91507f4552433732313a20617070726f76652063616c6c6572206973206e6f74206f7760008301527f6e6572206e6f7220617070726f76656420666f7220616c6c00000000000000006020830152604082019050919050565b6000612c98602a836134c4565b91507f4552433732313a2062616c616e636520717565727920666f7220746865207a6560008301527f726f2061646472657373000000000000000000000000000000000000000000006020830152604082019050919050565b6000612cfe6029836134c4565b91507f4552433732313a206f776e657220717565727920666f72206e6f6e657869737460008301527f656e7420746f6b656e00000000000000000000000000000000000000000000006020830152604082019050919050565b6000612d64602e836134c4565b91507f45524337323155524953746f726167653a2055524920736574206f66206e6f6e60008301527f6578697374656e7420746f6b656e0000000000000000000000000000000000006020830152604082019050919050565b6000612dca6020836134c4565b91507f4552433732313a206d696e7420746f20746865207a65726f20616464726573736000830152602082019050919050565b6000612e0a6031836134c4565b91507f45524337323155524953746f726167653a2055524920717565727920666f722060008301527f6e6f6e6578697374656e7420746f6b656e0000000000000000000000000000006020830152604082019050919050565b6000612e70602c836134c4565b91507f4552433732313a20617070726f76656420717565727920666f72206e6f6e657860008301527f697374656e7420746f6b656e00000000000000000000000000000000000000006020830152604082019050919050565b6000612ed66020836134c4565b91507f4f776e61626c653a2063616c6c6572206973206e6f7420746865206f776e65726000830152602082019050919050565b6000612f166029836134c4565b91507f4552433732313a207472616e73666572206f6620746f6b656e2074686174206960008301527f73206e6f74206f776e00000000000000000000000000000000000000000000006020830152604082019050919050565b6000612f7c602f836134c4565b91507f4552433732314d657461646174613a2055524920717565727920666f72206e6f60008301527f6e6578697374656e7420746f6b656e00000000000000000000000000000000006020830152604082019050919050565b6000612fe26021836134c4565b91507f4552433732313a20617070726f76616c20746f2063757272656e74206f776e6560008301527f72000000000000000000000000000000000000000000000000000000000000006020830152604082019050919050565b60006130486031836134c4565b91507f4552433732313a207472616e736665722063616c6c6572206973206e6f74206f60008301527f776e6572206e6f7220617070726f7665640000000000000000000000000000006020830152604082019050919050565b6130aa81613605565b82525050565b60006130bc828561295d565b91506130c8828461295d565b91508190509392505050565b60006130e0828561298e565b91506130ec828461295d565b91508190509392505050565b600060208201905061310d60008301846128cd565b92915050565b600060808201905061312860008301876128cd565b61313560208301866128cd565b61314260408301856130a1565b818103606083015261315481846128eb565b905095945050505050565b600060208201905061317460008301846128dc565b92915050565b600060208201905081810360008301526131948184612924565b905092915050565b600060208201905081810360008301526131b581612a0d565b9050919050565b600060208201905081810360008301526131d581612a73565b9050919050565b600060208201905081810360008301526131f581612ad9565b9050919050565b6000602082019050818103600083015261321581612b19565b9050919050565b6000602082019050818103600083015261323581612b7f565b9050919050565b6000602082019050818103600083015261325581612bbf565b9050919050565b6000602082019050818103600083015261327581612c25565b9050919050565b6000602082019050818103600083015261329581612c8b565b9050919050565b600060208201905081810360008301526132b581612cf1565b9050919050565b600060208201905081810360008301526132d581612d57565b9050919050565b600060208201905081810360008301526132f581612dbd565b9050919050565b6000602082019050818103600083015261331581612dfd565b9050919050565b6000602082019050818103600083015261333581612e63565b9050919050565b6000602082019050818103600083015261335581612ec9565b9050919050565b6000602082019050818103600083015261337581612f09565b9050919050565b6000602082019050818103600083015261339581612f6f565b9050919050565b600060208201905081810360008301526133b581612fd5565b9050919050565b600060208201905081810360008301526133d58161303b565b9050919050565b60006020820190506133f160008301846130a1565b92915050565b6000604051905081810181811067ffffffffffffffff8211171561341e5761341d61378a565b5b8060405250919050565b600067ffffffffffffffff8211156134435761344261378a565b5b601f19601f8301169050602081019050919050565b600067ffffffffffffffff8211156134735761347261378a565b5b601f19601f8301169050602081019050919050565b60008190508160005260206000209050919050565b600081519050919050565b600081519050919050565b600082825260208201905092915050565b600082825260208201905092915050565b600081905092915050565b60006134eb82613605565b91506134f683613605565b9250827fffffffffffffffffffffffffffffffffffffffffffffffffffffffffffffffff0382111561352b5761352a6136fd565b5b828201905092915050565b600061354182613605565b915061354c83613605565b92508261355c5761355b61372c565b5b828204905092915050565b600061357282613605565b915061357d83613605565b9250828210156135905761358f6136fd565b5b828203905092915050565b60006135a6826135e5565b9050919050565b60008115159050919050565b60007fffffffff0000000000000000000000000000000000000000000000000000000082169050919050565b600073ffffffffffffffffffffffffffffffffffffffff82169050919050565b6000819050919050565b82818337600083830152505050565b60005b8381101561363c578082015181840152602081019050613621565b8381111561364b576000848401525b50505050565b6000600282049050600182168061366957607f821691505b6020821081141561367d5761367c61375b565b5b50919050565b600061368e82613605565b91507fffffffffffffffffffffffffffffffffffffffffffffffffffffffffffffffff8214156136c1576136c06136fd565b5b600182019050919050565b60006136d782613605565b91506136e283613605565b9250826136f2576136f161372c565b5b828206905092915050565b7f4e487b7100000000000000000000000000000000000000000000000000000000600052601160045260246000fd5b7f4e487b7100000000000000000000000000000000000000000000000000000000600052601260045260246000fd5b7f4e487b7100000000000000000000000000000000000000000000000000000000600052602260045260246000fd5b7f4e487b7100000000000000000000000000000000000000000000000000000000600052604160045260246000fd5b6000601f19601f8301169050919050565b6137d38161359b565b81146137de57600080fd5b50565b6137ea816135ad565b81146137f557600080fd5b50565b613801816135b9565b811461380c57600080fd5b50565b61381881613605565b811461382357600080fd5b5056fea264697066735822122077be48b4bd0164d71e518df8c9955adff901f93efd5e7c1dfedb880bd28f4c3a64736f6c63430008000033",
  "linkReferences": {},
  "deployedLinkReferences": {}
}